:020000005D2879
:0E0006008312031323088A00220882000800D8
:1000140003208A110A128000840AA20A0319A30A7F
:08002400F003031D0A28080087
:10002C000730831203132405F100342801308800B3
:10003C00512802308800512804308800512808309B
:10004C008800512810308800512820308800512811
:10005C004030880051288030880051287108013ABE
:10006C0003191C287108023A03191F287108033A56
:10007C00031922287108043A031925287108053A36
:10008C00031928287108063A03192B287108073A16
:08009C0003192E283128080089
:1000A40083160313880183128801013083168700A5
:0600B4008312071508008D
:1000BA0083120313A001A1015220A001A10121086A
:1000CA00003C031D6A282008083C031C81282008DC
:1000DA00A40016200230FB002530FC003130FD0060
:1000EA00FD0B7528FC0B7528FB0B7528000000001A
:1000FA00A00A0319A10A64280830A0000030A10050
:10010A002108003C031D8B282008003C0318A32863
:10011A002008A40016200230FB002530FC003130F4
:10012A00FD00FD0B9628FC0B9628FB0B9628000079
:10013A0000000130A002031CA10385286228A4281C
:02400E004A2F37
:00000001FF
