:1000000038EF00F00000000023EF00F000000000D7
:0C001000000000000000000028EF00F0DD
:06001C0081B08380120098
:10002200959093800F0EC16E93828390F28EF28C24
:10003200D08EF086F08CF18AF090F088F09EF188F4
:04004200F092120026
:0A004600F0A002D08390F0901100AA
:10005000156ED8CF16F0E0CF17F0F0A202D0838053
:10006000F0921750E06E1650D86E153A1538100001
:08007000D8DFD4DFFED7FFD773
:020000040030CA
:0D000100021F1EFF8381FF0FC00FE00F40A4
:00000001FF
