:10000000ADEF00F00000000000EF00F00000000085
:0A0010000000000000000000F3D71C
:10001C0041D0010E176E166A156A1C6A59D0176A00
:10002C00010E166E156A1C6A53D0010E176E010E66
:10003C00166E156A1C6A4CD0176A166A010E156E7C
:10004C001C6A46D0010E176E166A010E156E1C6ADC
:10005C003FD0176A010E166E010E156E1C6A38D051
:10006C00010E176E010E166E010E156E1C6A30D045
:10007C00176A166A156A010E1C6E2AD0010E176ECD
:10008C00166A156A010E1C6E23D0176A166A156A59
:10009C001C6A1ED01D50010ABCE01D50020ABFE0B4
:1000AC001D50030AC2E01D50040AC6E01D50050A8B
:1000BC00C9E01D50060ACDE01D50070AD1E01D50C5
:1000CC00080AD6E01D50090AD9E01D50000ADDE0EF
:0200DC00120010
:1000DE001DB002D0839801D083881EB002D0839ABF
:1000EE0001D0838A1FB002D0839C01D0838C20B0B4
:0A00FE0002D0839E01D0838E120011
:100108001DB002D0839001D083801EB002D08392AC
:1001180001D083821FB002D0839401D0838420B0A1
:0A01280002D0839601D083861200F6
:100132000900F5CFE6FF0006FBE10106F9E1120036
:10014200956A836A94809482F28EF28CD08EF086C5
:08015200F08CF18AF09012001C
:10015A00156A166A176A186A196A1A6A1B6A1C6A81
:10016A00EBDF82B048D082A246D01A6A1B6A800EA0
:10017A00006E800E1B18005C02E11A5009083BE36E
:10018A001AC01DF046DF17C01DF016C01EF015C0BC
:10019A001FF01CC020F09EDF82B001D02CD0186A5C
:1001AA00196A800E006E800E1918005C02E1185060
:1001BA0009081EE318C01DF02CDF17C01DF016C079
:1001CA001EF015C01FF01CC020F099DF050E0B6E43
:1001DA000F0E0C6EF10E0D6E0D2EFED70C2EFCD7E7
:1001EA000B2EFAD782B001D003D0184A192AD9D7D0
:1001FA001A4A1B2ABCD782B050D082B24ED0090EFE
:10020A001A6E000E1B6E800E1B18006E800E005CAC
:10021A0002E1000E1A5C41E31AC01DF0FADE17C0B3
:10022A001DF016C01EF015C01FF01CC020F052DFD2
:10023A0082B001D032D0090E186E000E196E800EEF
:10024A001918006E800E005C02E1000E185C20E3B3
:10025A0018C01DF0DEDE17C01DF016C01EF015C056
:10026A001FF01CC020F04BDF050E0B6E0F0E0C6E3C
:10027A00F10E0D6E0D2EFED70C2EFCD70B2EFAD7D3
:10028A0082B001D005D0010E185E000E195AD7D7D8
:0E029A00010E1A5E000E1B5AB6D763D7FFD7AF
:020000040030CA
:0D000100021F1EFF8381FF0FC00FE00F40A4
:00000001FF
