:1000000008EF02F000000000F1EF01F00000000036
:0C0010000000000000000000F7EF01F00D
:0A001C00210E0D6E0D2EFED712000E
:100026000F0E0C6E470E0D6E0D2EFED70C2EFCD746
:06003600000000001200B2
:06003C00000000001200AC
:10004200086A096A100E0C6E01340836093604502B
:10005200085E0550D8A0053C095ED8B007D0045010
:1000620008260550D8B0053C0926D890003601363E
:060072000C2EEAD712007B
:1000780044BE02D0839E01D0838E44BC02D0839CB0
:1000880001D0838C44BA02D0839A01D0838A44B8C1
:1000980002D0839801D083882AB002D0838401D00B
:1000A80083948386C7DF839644B602D0839E01D0AB
:1000B800838E44B402D0839C01D0838C44B202D096
:1000C800839A01D0838A44B002D0839801D0838870
:1000D8002AB002D0838401D083948386ABDF8396D1
:0C00E8002AA002D09CDF01D095DF12009E
:1000F400416A050E415C0AE241503F24E16E000E64
:100104004020E26E200EE66E412AF3D741503F2490
:10011400E16E000E4020E26EE66A410641503F2443
:10012400426E000E4020436E0A0E046E000E056EF1
:100134003DC000F03EC001F082DF08C000F009C0FD
:1001440001F0300E002642C0E1FF43C0E2FF00C0D0
:10015400E6FF0A0E046E000E056E3DC000F03EC0C0
:1001640001F06DDF00C03DF001C03EF0000E01184B
:1001740002E1000E001801E102D04106CFD71200BF
:0C0184002A903DC044F076DF2A80120073
:10019000FF0E266EFF0E276EFF0E286EFF0E296ED5
:1001A000C26A181C006E0050C116070EC012C08E25
:0401B000C2801200F7
:1001B400959695949598959A959C959E83968394F7
:1001C400839E839C839A83982CDF2BDF2ADF838A88
:1001D4008388838631DF839624DF83862DDF8396AD
:1001E40020DF838629DF83961CDF8398838624DFC0
:1001F400839617DF838620DF8396839A838E838694
:100204001BDF83960EDF839E8388838615DF8396A8
:100214008398838611DF839604DF83860DDF8396BC
:100224008388838609DF8396FCDE8398838604DFD4
:100234008396838E838C838A83888386FDDE83966C
:06024400F0DE2A8012002A
:10024A009280928292840C0EC16E9DDF070EB46E6C
:10025A00ACDF010E446E0BDF0C0E446E08DFF28E2B
:10026A00F28CD08EF086F08CF18AF090F088F09EB5
:06027A00F188F092120071
:100280000900F5CFE6FF0006FBE10106F9E11200E7
:100290000FD0800E336E19D0C00E336E16D0940E70
:1002A000336E13D0D40E336E10D0800E336E0DD05B
:1002B0003350010AEEE03350020AEEE03350030AF5
:1002C000EEE03350040AEEE0F0D73404006E335011
:1002D000002600C033F000C044F0CEDE2A90376A1A
:1002E00037503524E96E000E3620EA6EEE520BE0F0
:1002F00037503524E96E000E3620EA6EEECF3DF021
:0A03000041DF372AEDD72A801200F2
:10030A00396A3A6A33C03BF034C03CF0800E341884
:10031A00006E800E005C02E1000E335C0BE2010EFF
:10032A00396E000E3A6E335000083B6E34C03CF012
:10033A00000E3C563BC03DF03CC03EF035C03FF09D
:10034A0036C040F0D2DE060E376E000E386E000E52
:10035A00006E3850005C02E13750000819E237504D
:10036A003524E16E38503620E26E010E375C006E9D
:10037A00000E3858016E00503524E96E01503620BF
:10038A00EA6EEECFE6FF010E375E000E385ADFD76F
:10039A0035C0E1FF36C0E2FF200EE66E39503A1052
:1003AA001AE0376A386A37503524E96E38503620F1
:1003BA00EA6EEE50200A03E1374A382AF4D7010ED2
:1003CA00375E000E385A37503524E16E38503620E1
:0803DA00E26E2D0EE66E12002A
:0C03E200F0A003D0F090244A252A11005E
:1003EE00156ED8CF16F0E0CF17F0F0A203D0F09232
:1003FE00246A256A1750E06E1650D86E153A1538D5
:02040E001000DC
:100410003CEC02F01ADF010E336E020E346E190E40
:10042000356E000E366E34DF24C033F025C034F054
:100430002B0E356E000E366E68DF020E336E020E26
:10044000346E2B0E356E000E366E22DF020E0B6EF2
:10045000040E0C6EBA0E0D6E0D2EFED70C2EFCD7B0
:0A0460000B2EFAD70000D7D7FFD704
:1004780010EE18F00E0E006E010E016E6A0EF66E8A
:0E048800040EF76E000EF86E40EC01F012004C
:01046A003061
:0B046B00436F6E746167656D3A2000FE
:02047600000084
:020000040030CA
:0D000100021F1EFF8381FF0FC00FE00F40A4
:00000001FF
